{
  "address": "0xd07EE6193A3cAD248077AF335ceA091A37E85964",
  "abi": [
    {
      "inputs": [
        {
          "internalType": "uint256",
          "name": "_rate",
          "type": "uint256"
        },
        {
          "internalType": "address payable",
          "name": "_wallet",
          "type": "address"
        },
        {
          "internalType": "contract IERC20",
          "name": "_token",
          "type": "address"
        },
        {
          "internalType": "uint256",
          "name": "_openingTime",
          "type": "uint256"
        },
        {
          "internalType": "uint256",
          "name": "_closingTime",
          "type": "uint256"
        },
        {
          "internalType": "uint256",
          "name": "_cap",
          "type": "uint256"
        },
        {
          "internalType": "uint256",
          "name": "_individualCap",
          "type": "uint256"
        }
      ],
      "stateMutability": "nonpayable",
      "type": "constructor"
    },
    {
      "anonymous": false,
      "inputs": [
        {
          "indexed": true,
          "internalType": "address",
          "name": "previousOwner",
          "type": "address"
        },
        {
          "indexed": true,
          "internalType": "address",
          "name": "newOwner",
          "type": "address"
        }
      ],
      "name": "OwnershipTransferred",
      "type": "event"
    },
    {
      "anonymous": false,
      "inputs": [
        {
          "indexed": false,
          "internalType": "uint256",
          "name": "prevClosingTime",
          "type": "uint256"
        },
        {
          "indexed": false,
          "internalType": "uint256",
          "name": "newClosingTime",
          "type": "uint256"
        }
      ],
      "name": "TimedCrowdsaleExtended",
      "type": "event"
    },
    {
      "anonymous": false,
      "inputs": [
        {
          "indexed": true,
          "internalType": "address",
          "name": "purchaser",
          "type": "address"
        },
        {
          "indexed": true,
          "internalType": "address",
          "name": "beneficiary",
          "type": "address"
        },
        {
          "indexed": false,
          "internalType": "uint256",
          "name": "value",
          "type": "uint256"
        },
        {
          "indexed": false,
          "internalType": "uint256",
          "name": "amount",
          "type": "uint256"
        }
      ],
      "name": "TokensPurchased",
      "type": "event"
    },
    {
      "inputs": [],
      "name": "_rate",
      "outputs": [
        {
          "internalType": "uint256",
          "name": "",
          "type": "uint256"
        }
      ],
      "stateMutability": "view",
      "type": "function"
    },
    {
      "inputs": [],
      "name": "_token",
      "outputs": [
        {
          "internalType": "contract IERC20",
          "name": "",
          "type": "address"
        }
      ],
      "stateMutability": "view",
      "type": "function"
    },
    {
      "inputs": [],
      "name": "_wallet",
      "outputs": [
        {
          "internalType": "address payable",
          "name": "",
          "type": "address"
        }
      ],
      "stateMutability": "view",
      "type": "function"
    },
    {
      "inputs": [],
      "name": "_weiRaised",
      "outputs": [
        {
          "internalType": "uint256",
          "name": "",
          "type": "uint256"
        }
      ],
      "stateMutability": "view",
      "type": "function"
    },
    {
      "inputs": [
        {
          "internalType": "address",
          "name": "beneficiary",
          "type": "address"
        }
      ],
      "name": "buyTokens",
      "outputs": [],
      "stateMutability": "payable",
      "type": "function"
    },
    {
      "inputs": [],
      "name": "cap",
      "outputs": [
        {
          "internalType": "uint256",
          "name": "",
          "type": "uint256"
        }
      ],
      "stateMutability": "view",
      "type": "function"
    },
    {
      "inputs": [],
      "name": "capReached",
      "outputs": [
        {
          "internalType": "bool",
          "name": "",
          "type": "bool"
        }
      ],
      "stateMutability": "view",
      "type": "function"
    },
    {
      "inputs": [],
      "name": "closingTime",
      "outputs": [
        {
          "internalType": "uint256",
          "name": "",
          "type": "uint256"
        }
      ],
      "stateMutability": "view",
      "type": "function"
    },
    {
      "inputs": [
        {
          "internalType": "address",
          "name": "",
          "type": "address"
        }
      ],
      "name": "contributions",
      "outputs": [
        {
          "internalType": "uint256",
          "name": "",
          "type": "uint256"
        }
      ],
      "stateMutability": "view",
      "type": "function"
    },
    {
      "inputs": [
        {
          "internalType": "uint256",
          "name": "newClosingTime",
          "type": "uint256"
        }
      ],
      "name": "extendTime",
      "outputs": [],
      "stateMutability": "nonpayable",
      "type": "function"
    },
    {
      "inputs": [],
      "name": "hasClosed",
      "outputs": [
        {
          "internalType": "bool",
          "name": "",
          "type": "bool"
        }
      ],
      "stateMutability": "view",
      "type": "function"
    },
    {
      "inputs": [],
      "name": "individualCap",
      "outputs": [
        {
          "internalType": "uint256",
          "name": "",
          "type": "uint256"
        }
      ],
      "stateMutability": "view",
      "type": "function"
    },
    {
      "inputs": [],
      "name": "isOpen",
      "outputs": [
        {
          "internalType": "bool",
          "name": "",
          "type": "bool"
        }
      ],
      "stateMutability": "view",
      "type": "function"
    },
    {
      "inputs": [],
      "name": "openingTime",
      "outputs": [
        {
          "internalType": "uint256",
          "name": "",
          "type": "uint256"
        }
      ],
      "stateMutability": "view",
      "type": "function"
    },
    {
      "inputs": [],
      "name": "owner",
      "outputs": [
        {
          "internalType": "address",
          "name": "",
          "type": "address"
        }
      ],
      "stateMutability": "view",
      "type": "function"
    },
    {
      "inputs": [],
      "name": "renounceOwnership",
      "outputs": [],
      "stateMutability": "nonpayable",
      "type": "function"
    },
    {
      "inputs": [
        {
          "internalType": "uint256",
          "name": "newIndividualCap",
          "type": "uint256"
        }
      ],
      "name": "setIndividualCap",
      "outputs": [],
      "stateMutability": "nonpayable",
      "type": "function"
    },
    {
      "inputs": [
        {
          "internalType": "address",
          "name": "newOwner",
          "type": "address"
        }
      ],
      "name": "transferOwnership",
      "outputs": [],
      "stateMutability": "nonpayable",
      "type": "function"
    },
    {
      "inputs": [
        {
          "internalType": "uint256",
          "name": "newCap",
          "type": "uint256"
        }
      ],
      "name": "updateCap",
      "outputs": [],
      "stateMutability": "nonpayable",
      "type": "function"
    },
    {
      "stateMutability": "payable",
      "type": "receive"
    }
  ],
  "transactionHash": "0x0bb4db2789a4dd4cc602b99dd252674f5d6fcb19028dfda59ca1d2b4939bb614",
  "args": [
    920,
    "0xA1D0678e46288803e017d27ccE478Cc34025a099",
    "0x1D7f64e2Fb2Be8c1eac6914f49Ca4E897F5d7539",
    1641958128,
    1643069744,
    1000000000000000,
    1000000000000
  ],
  "solcInputHash": "5378213817ce46c6a89b0fe0bf34731a",
  "bytecode": "0x60806040523480156200001157600080fd5b50604051620013bb380380620013bb833981810160405260e08110156200003757600080fd5b508051602082015160408301516060840151608085015160a086015160c0909601516001600055949593949293919290919086868682620000bf576040805162461bcd60e51b815260206004820152601460248201527f43726f776473616c653a20726174652069732030000000000000000000000000604482015290519081900360640190fd5b6001600160a01b038216620001065760405162461bcd60e51b8152600401808060200182810382526025815260200180620013966025913960400191505060405180910390fd5b6001600160a01b0381166200014d5760405162461bcd60e51b8152600401808060200182810382526024815260200180620013726024913960400191505060405180910390fd5b600392909255600280546001600160a01b039283166001600160a01b0319918216179091556001805492909316911617905560006200018b6200030a565b600580546001600160a01b0319166001600160a01b038316908117909155604051919250906000907f8be0079c531659141344cd1fd0a4f28419497f9722a3daafe3b4186f6b6457e0908290a350428410156200021a5760405162461bcd60e51b8152600401808060200182810382526033815260200180620012e46033913960400191505060405180910390fd5b8383116200025a5760405162461bcd60e51b8152600401808060200182810382526037815260200180620013176037913960400191505060405180910390fd5b6006849055600783905581620002b7576040805162461bcd60e51b815260206004820152601960248201527f43617070656443726f776473616c653a20636170206973203000000000000000604482015290519081900360640190fd5b600882905580620002fa5760405162461bcd60e51b81526004018080602001828103825260248152602001806200134e6024913960400191505060405180910390fd5b600a55506200030e945050505050565b3390565b610fc6806200031e6000396000f3fe6080604052600436106101485760003560e01c806383bebced116100c0578063b7a8807c11610074578063ec8ac4d811610059578063ec8ac4d814610353578063ecd0c0c314610379578063f2fde38b1461038e5761015f565b8063b7a8807c14610314578063cd2b3026146103295761015f565b806394a5aa8d116100a557806394a5aa8d146102ab578063a27aebbc146102c0578063a7d68896146102ea5761015f565b806383bebced146102815780638da5cb5b146102965761015f565b806347535d7b116101175780634f935945116100fc5780634f93594514610226578063610757e41461023b578063715018a61461026c5761015f565b806347535d7b146101fc5780634b6753bc146102115761015f565b80630276650b146101645780631515bc2b1461018b578063355274ea146101b457806342e94c90146101c95761015f565b3661015f5761015d6101586103c1565b6103c5565b005b600080fd5b34801561017057600080fd5b506101796104d5565b60408051918252519081900360200190f35b34801561019757600080fd5b506101a06104db565b604080519115158252519081900360200190f35b3480156101c057600080fd5b506101796104e3565b3480156101d557600080fd5b50610179600480360360208110156101ec57600080fd5b50356001600160a01b03166104e9565b34801561020857600080fd5b506101a06104fb565b34801561021d57600080fd5b50610179610516565b34801561023257600080fd5b506101a061051c565b34801561024757600080fd5b50610250610527565b604080516001600160a01b039092168252519081900360200190f35b34801561027857600080fd5b5061015d610536565b34801561028d57600080fd5b506101796105f7565b3480156102a257600080fd5b506102506105fd565b3480156102b757600080fd5b5061017961060c565b3480156102cc57600080fd5b5061015d600480360360208110156102e357600080fd5b5035610612565b3480156102f657600080fd5b5061015d6004803603602081101561030d57600080fd5b5035610758565b34801561032057600080fd5b5061017961081e565b34801561033557600080fd5b5061015d6004803603602081101561034c57600080fd5b5035610824565b61015d6004803603602081101561036957600080fd5b50356001600160a01b03166103c5565b34801561038557600080fd5b506102506108d4565b34801561039a57600080fd5b5061015d600480360360208110156103b157600080fd5b50356001600160a01b03166108e3565b3390565b6002600054141561041d576040805162461bcd60e51b815260206004820152601f60248201527f5265656e7472616e637947756172643a207265656e7472616e742063616c6c00604482015290519081900360640190fd5b60026000553461042d82826109fb565b600061043882610b28565b6004549091506104489083610b45565b6004556104558382610ba6565b826001600160a01b03166104676103c1565b6001600160a01b03167f6faf93231a456e552dbc9961f58d9713ee4f2e69d15f1975b050ef0911053a7b8484604051808381526020018281526020019250505060405180910390a36104b98383610bb0565b6104c1610bfd565b6104cb8383610b24565b5050600160005550565b600a5481565b600754421190565b60085481565b60096020526000908152604090205481565b6000600654421015801561051157506007544211155b905090565b60075481565b600854600454101590565b6002546001600160a01b031681565b61053e6103c1565b6005546001600160a01b039081169116146105a0576040805162461bcd60e51b815260206004820181905260248201527f4f776e61626c653a2063616c6c6572206973206e6f7420746865206f776e6572604482015290519081900360640190fd5b6005546040516000916001600160a01b0316907f8be0079c531659141344cd1fd0a4f28419497f9722a3daafe3b4186f6b6457e0908390a36005805473ffffffffffffffffffffffffffffffffffffffff19169055565b60035481565b6005546001600160a01b031690565b60045481565b61061a6103c1565b6005546001600160a01b0390811691161461067c576040805162461bcd60e51b815260206004820181905260248201527f4f776e61626c653a2063616c6c6572206973206e6f7420746865206f776e6572604482015290519081900360640190fd5b6106846104db565b156106d6576040805162461bcd60e51b815260206004820152601e60248201527f54696d656443726f776473616c653a20616c726561647920636c6f7365640000604482015290519081900360640190fd5b60075481116107165760405162461bcd60e51b815260040180806020018281038252603f815260200180610f05603f913960400191505060405180910390fd5b600754604080519182526020820183905280517f46711e222f558a07afd26e5e71b48ecb0a8b2cdcd40faeb1323e05e2c76a2f329281900390910190a1600755565b6107606103c1565b6005546001600160a01b039081169116146107c2576040805162461bcd60e51b815260206004820181905260248201527f4f776e61626c653a2063616c6c6572206973206e6f7420746865206f776e6572604482015290519081900360640190fd5b600060085411610819576040805162461bcd60e51b815260206004820152601960248201527f43617070656443726f776473616c653a20636170206973203000000000000000604482015290519081900360640190fd5b600855565b60065481565b61082c6103c1565b6005546001600160a01b0390811691161461088e576040805162461bcd60e51b815260206004820181905260248201527f4f776e61626c653a2063616c6c6572206973206e6f7420746865206f776e6572604482015290519081900360640190fd5b6000600a54116108cf5760405162461bcd60e51b8152600401808060200182810382526024815260200180610ee16024913960400191505060405180910390fd5b600a55565b6001546001600160a01b031681565b6108eb6103c1565b6005546001600160a01b0390811691161461094d576040805162461bcd60e51b815260206004820181905260248201527f4f776e61626c653a2063616c6c6572206973206e6f7420746865206f776e6572604482015290519081900360640190fd5b6001600160a01b0381166109925760405162461bcd60e51b8152600401808060200182810382526026815260200180610ebb6026913960400191505060405180910390fd5b6005546040516001600160a01b038084169216907f8be0079c531659141344cd1fd0a4f28419497f9722a3daafe3b4186f6b6457e090600090a36005805473ffffffffffffffffffffffffffffffffffffffff19166001600160a01b0392909216919091179055565b610a036104fb565b610a54576040805162461bcd60e51b815260206004820152601860248201527f54696d656443726f776473616c653a206e6f74206f70656e0000000000000000604482015290519081900360640190fd5b610a5e8282610c39565b600854600454610a6e9083610b45565b1115610ac1576040805162461bcd60e51b815260206004820152601d60248201527f43617070656443726f776473616c653a20636170206578636565646564000000604482015290519081900360640190fd5b600a546001600160a01b038316600090815260096020526040902054610ae79083610b45565b1115610b245760405162461bcd60e51b815260040180806020018281038252602b815260200180610f65602b913960400191505060405180910390fd5b5050565b6000610b3f60035483610cd090919063ffffffff16565b92915050565b600082820183811015610b9f576040805162461bcd60e51b815260206004820152601b60248201527f536166654d6174683a206164646974696f6e206f766572666c6f770000000000604482015290519081900360640190fd5b9392505050565b610b248282610d29565b610bba8282610b24565b6001600160a01b038216600090815260096020526040902054610bdd9082610b45565b6001600160a01b0390921660009081526009602052604090209190915550565b6002546040516001600160a01b03909116903480156108fc02916000818181858888f19350505050158015610c36573d6000803e3d6000fd5b50565b6001600160a01b038216610c7e5760405162461bcd60e51b815260040180806020018281038252602a815260200180610f90602a913960400191505060405180910390fd5b80610b24576040805162461bcd60e51b815260206004820152601960248201527f43726f776473616c653a20776569416d6f756e74206973203000000000000000604482015290519081900360640190fd5b600082610cdf57506000610b3f565b82820282848281610cec57fe5b0414610b9f5760405162461bcd60e51b8152600401808060200182810382526021815260200180610f446021913960400191505060405180910390fd5b600154610b24906001600160a01b03168383604080516001600160a01b038481166024830152604480830185905283518084039091018152606490920183526020820180517bffffffffffffffffffffffffffffffffffffffffffffffffffffffff1663a9059cbb60e01b178152925182516000946060949389169392918291908083835b60208310610dcd5780518252601f199092019160209182019101610dae565b6001836020036101000a0380198251168184511680821785525050505050509050019150506000604051808303816000865af19150503d8060008114610e2f576040519150601f19603f3d011682016040523d82523d6000602084013e610e34565b606091505b5091509150818015610e62575080511580610e625750808060200190516020811015610e5f57600080fd5b50515b610eb3576040805162461bcd60e51b815260206004820152600f60248201527f5452414e534645525f4641494c45440000000000000000000000000000000000604482015290519081900360640190fd5b505050505056fe4f776e61626c653a206e6577206f776e657220697320746865207a65726f206164647265737343617070656443726f776473616c653a20696e646976696475616c20636170206973203054696d656443726f776473616c653a206e657720636c6f73696e672074696d65206973206265666f72652063757272656e7420636c6f73696e672074696d65536166654d6174683a206d756c7469706c69636174696f6e206f766572666c6f7743617070656443726f776473616c653a2062656e656669636961727927732063617020657863656564656443726f776473616c653a2062656e656669636961727920697320746865207a65726f2061646472657373a164736f6c6343000705000a54696d656443726f776473616c653a206f70656e696e672074696d65206973206265666f72652063757272656e742074696d6554696d656443726f776473616c653a206f70656e696e672074696d65206973206e6f74206265666f726520636c6f73696e672074696d6543617070656443726f776473616c653a20696e646976696475616c20636170206973203043726f776473616c653a20746f6b656e20697320746865207a65726f206164647265737343726f776473616c653a2077616c6c657420697320746865207a65726f2061646472657373",
  "devdoc": {
    "events": {
      "TimedCrowdsaleExtended(uint256,uint256)": {
        "params": {
          "newClosingTime": "new closing time",
          "prevClosingTime": "old closing time"
        }
      }
    },
    "kind": "dev",
    "methods": {
      "buyTokens(address)": {
        "details": "low level token purchase ***DO NOT OVERRIDE*** This function has a non-reentrancy guard, so it shouldn't be called by another `nonReentrant` function.",
        "params": {
          "beneficiary": "Recipient of the token purchase"
        }
      },
      "capReached()": {
        "details": "Checks whether the cap has been reached.",
        "returns": {
          "_0": "Whether the cap was reached"
        }
      },
      "extendTime(uint256)": {
        "details": "Extend crowdsale.",
        "params": {
          "newClosingTime": "Crowdsale closing time"
        }
      },
      "hasClosed()": {
        "details": "Checks whether the period in which the crowdsale is open has already elapsed.",
        "returns": {
          "_0": "Whether crowdsale period has elapsed"
        }
      },
      "isOpen()": {
        "returns": {
          "_0": "true if the crowdsale is open, false otherwise."
        }
      },
      "owner()": {
        "details": "Returns the address of the current owner."
      },
      "renounceOwnership()": {
        "details": "Leaves the contract without owner. It will not be possible to call `onlyOwner` functions anymore. Can only be called by the current owner. NOTE: Renouncing ownership will leave the contract without an owner, thereby removing any functionality that is only available to the owner."
      },
      "transferOwnership(address)": {
        "details": "Transfers ownership of the contract to a new account (`newOwner`). Can only be called by the current owner."
      }
    },
    "version": 1
  },
  "userdoc": {
    "events": {
      "TimedCrowdsaleExtended(uint256,uint256)": {
        "notice": "Event for crowdsale extending"
      },
      "TokensPurchased(address,address,uint256,uint256)": {
        "notice": "Event for token purchase logging"
      }
    },
    "kind": "user",
    "methods": {},
    "version": 1
  },
  "storageLayout": {
    "storage": [
      {
        "astId": 142,
        "contract": "contracts/presale/PlutusPresale.sol:PlutusPresale",
        "label": "_status",
        "offset": 0,
        "slot": "0",
        "type": "t_uint256"
      },
      {
        "astId": 9396,
        "contract": "contracts/presale/PlutusPresale.sol:PlutusPresale",
        "label": "_token",
        "offset": 0,
        "slot": "1",
        "type": "t_contract(IERC20)6951"
      },
      {
        "astId": 9398,
        "contract": "contracts/presale/PlutusPresale.sol:PlutusPresale",
        "label": "_wallet",
        "offset": 0,
        "slot": "2",
        "type": "t_address_payable"
      },
      {
        "astId": 9400,
        "contract": "contracts/presale/PlutusPresale.sol:PlutusPresale",
        "label": "_rate",
        "offset": 0,
        "slot": "3",
        "type": "t_uint256"
      },
      {
        "astId": 9402,
        "contract": "contracts/presale/PlutusPresale.sol:PlutusPresale",
        "label": "_weiRaised",
        "offset": 0,
        "slot": "4",
        "type": "t_uint256"
      },
      {
        "astId": 30,
        "contract": "contracts/presale/PlutusPresale.sol:PlutusPresale",
        "label": "_owner",
        "offset": 0,
        "slot": "5",
        "type": "t_address"
      },
      {
        "astId": 9650,
        "contract": "contracts/presale/PlutusPresale.sol:PlutusPresale",
        "label": "openingTime",
        "offset": 0,
        "slot": "6",
        "type": "t_uint256"
      },
      {
        "astId": 9652,
        "contract": "contracts/presale/PlutusPresale.sol:PlutusPresale",
        "label": "closingTime",
        "offset": 0,
        "slot": "7",
        "type": "t_uint256"
      },
      {
        "astId": 9654,
        "contract": "contracts/presale/PlutusPresale.sol:PlutusPresale",
        "label": "cap",
        "offset": 0,
        "slot": "8",
        "type": "t_uint256"
      },
      {
        "astId": 9658,
        "contract": "contracts/presale/PlutusPresale.sol:PlutusPresale",
        "label": "contributions",
        "offset": 0,
        "slot": "9",
        "type": "t_mapping(t_address,t_uint256)"
      },
      {
        "astId": 9660,
        "contract": "contracts/presale/PlutusPresale.sol:PlutusPresale",
        "label": "individualCap",
        "offset": 0,
        "slot": "10",
        "type": "t_uint256"
      }
    ],
    "types": {
      "t_address": {
        "encoding": "inplace",
        "label": "address",
        "numberOfBytes": "20"
      },
      "t_address_payable": {
        "encoding": "inplace",
        "label": "address payable",
        "numberOfBytes": "20"
      },
      "t_contract(IERC20)6951": {
        "encoding": "inplace",
        "label": "contract IERC20",
        "numberOfBytes": "20"
      },
      "t_mapping(t_address,t_uint256)": {
        "encoding": "mapping",
        "key": "t_address",
        "label": "mapping(address => uint256)",
        "numberOfBytes": "32",
        "value": "t_uint256"
      },
      "t_uint256": {
        "encoding": "inplace",
        "label": "uint256",
        "numberOfBytes": "32"
      }
    }
  }
}