{
  "address": "0xB305b529C4b1D9A3181b2a553C60D8d8E496Af17",
  "abi": [
    {
      "inputs": [
        {
          "internalType": "uint256",
          "name": "_rate",
          "type": "uint256"
        },
        {
          "internalType": "uint256",
          "name": "_rateDecimals",
          "type": "uint256"
        },
        {
          "internalType": "address payable",
          "name": "_wallet",
          "type": "address"
        },
        {
          "internalType": "contract IERC20",
          "name": "_token",
          "type": "address"
        },
        {
          "internalType": "contract IERC20",
          "name": "_busd",
          "type": "address"
        },
        {
          "internalType": "uint256",
          "name": "_openingTime",
          "type": "uint256"
        },
        {
          "internalType": "uint256",
          "name": "_closingTime",
          "type": "uint256"
        },
        {
          "internalType": "uint256",
          "name": "_cap",
          "type": "uint256"
        },
        {
          "internalType": "uint256",
          "name": "_individualCap",
          "type": "uint256"
        },
        {
          "internalType": "uint256",
          "name": "_vestingTime",
          "type": "uint256"
        }
      ],
      "stateMutability": "nonpayable",
      "type": "constructor"
    },
    {
      "anonymous": false,
      "inputs": [
        {
          "indexed": true,
          "internalType": "address",
          "name": "previousOwner",
          "type": "address"
        },
        {
          "indexed": true,
          "internalType": "address",
          "name": "newOwner",
          "type": "address"
        }
      ],
      "name": "OwnershipTransferred",
      "type": "event"
    },
    {
      "anonymous": false,
      "inputs": [
        {
          "indexed": false,
          "internalType": "uint256",
          "name": "prevClosingTime",
          "type": "uint256"
        },
        {
          "indexed": false,
          "internalType": "uint256",
          "name": "newClosingTime",
          "type": "uint256"
        }
      ],
      "name": "TimedCrowdsaleExtended",
      "type": "event"
    },
    {
      "anonymous": false,
      "inputs": [
        {
          "indexed": true,
          "internalType": "address",
          "name": "purchaser",
          "type": "address"
        },
        {
          "indexed": true,
          "internalType": "address",
          "name": "beneficiary",
          "type": "address"
        },
        {
          "indexed": false,
          "internalType": "uint256",
          "name": "value",
          "type": "uint256"
        },
        {
          "indexed": false,
          "internalType": "uint256",
          "name": "amount",
          "type": "uint256"
        }
      ],
      "name": "TokensPrePurchased",
      "type": "event"
    },
    {
      "inputs": [],
      "name": "VESTING_TIME_DECIMALS",
      "outputs": [
        {
          "internalType": "uint256",
          "name": "",
          "type": "uint256"
        }
      ],
      "stateMutability": "view",
      "type": "function"
    },
    {
      "inputs": [],
      "name": "busd",
      "outputs": [
        {
          "internalType": "contract IERC20",
          "name": "",
          "type": "address"
        }
      ],
      "stateMutability": "view",
      "type": "function"
    },
    {
      "inputs": [
        {
          "internalType": "uint256",
          "name": "_amount",
          "type": "uint256"
        },
        {
          "internalType": "address",
          "name": "beneficiary",
          "type": "address"
        }
      ],
      "name": "buyTokens",
      "outputs": [],
      "stateMutability": "nonpayable",
      "type": "function"
    },
    {
      "inputs": [],
      "name": "cap",
      "outputs": [
        {
          "internalType": "uint256",
          "name": "",
          "type": "uint256"
        }
      ],
      "stateMutability": "view",
      "type": "function"
    },
    {
      "inputs": [],
      "name": "capReached",
      "outputs": [
        {
          "internalType": "bool",
          "name": "",
          "type": "bool"
        }
      ],
      "stateMutability": "view",
      "type": "function"
    },
    {
      "inputs": [],
      "name": "closingTime",
      "outputs": [
        {
          "internalType": "uint256",
          "name": "",
          "type": "uint256"
        }
      ],
      "stateMutability": "view",
      "type": "function"
    },
    {
      "inputs": [
        {
          "internalType": "uint256",
          "name": "newClosingTime",
          "type": "uint256"
        }
      ],
      "name": "extendTime",
      "outputs": [],
      "stateMutability": "nonpayable",
      "type": "function"
    },
    {
      "inputs": [],
      "name": "getPercentReleased",
      "outputs": [
        {
          "internalType": "uint256",
          "name": "",
          "type": "uint256"
        }
      ],
      "stateMutability": "view",
      "type": "function"
    },
    {
      "inputs": [],
      "name": "hasClosed",
      "outputs": [
        {
          "internalType": "bool",
          "name": "",
          "type": "bool"
        }
      ],
      "stateMutability": "view",
      "type": "function"
    },
    {
      "inputs": [],
      "name": "individualCap",
      "outputs": [
        {
          "internalType": "uint256",
          "name": "",
          "type": "uint256"
        }
      ],
      "stateMutability": "view",
      "type": "function"
    },
    {
      "inputs": [],
      "name": "isOpen",
      "outputs": [
        {
          "internalType": "bool",
          "name": "",
          "type": "bool"
        }
      ],
      "stateMutability": "view",
      "type": "function"
    },
    {
      "inputs": [],
      "name": "openingTime",
      "outputs": [
        {
          "internalType": "uint256",
          "name": "",
          "type": "uint256"
        }
      ],
      "stateMutability": "view",
      "type": "function"
    },
    {
      "inputs": [],
      "name": "owner",
      "outputs": [
        {
          "internalType": "address",
          "name": "",
          "type": "address"
        }
      ],
      "stateMutability": "view",
      "type": "function"
    },
    {
      "inputs": [
        {
          "internalType": "address",
          "name": "",
          "type": "address"
        }
      ],
      "name": "preBuys",
      "outputs": [
        {
          "internalType": "uint256",
          "name": "weiAmount",
          "type": "uint256"
        },
        {
          "internalType": "uint256",
          "name": "plusAmountClaimed",
          "type": "uint256"
        }
      ],
      "stateMutability": "view",
      "type": "function"
    },
    {
      "inputs": [],
      "name": "rate",
      "outputs": [
        {
          "internalType": "uint256",
          "name": "",
          "type": "uint256"
        }
      ],
      "stateMutability": "view",
      "type": "function"
    },
    {
      "inputs": [],
      "name": "rateDecimals",
      "outputs": [
        {
          "internalType": "uint256",
          "name": "",
          "type": "uint256"
        }
      ],
      "stateMutability": "view",
      "type": "function"
    },
    {
      "inputs": [
        {
          "internalType": "address",
          "name": "beneficiary",
          "type": "address"
        }
      ],
      "name": "redeemPlus",
      "outputs": [],
      "stateMutability": "nonpayable",
      "type": "function"
    },
    {
      "inputs": [],
      "name": "renounceOwnership",
      "outputs": [],
      "stateMutability": "nonpayable",
      "type": "function"
    },
    {
      "inputs": [],
      "name": "retreiveExcessPlus",
      "outputs": [],
      "stateMutability": "nonpayable",
      "type": "function"
    },
    {
      "inputs": [
        {
          "internalType": "uint256",
          "name": "newIndividualCap",
          "type": "uint256"
        }
      ],
      "name": "setIndividualCap",
      "outputs": [],
      "stateMutability": "nonpayable",
      "type": "function"
    },
    {
      "inputs": [],
      "name": "token",
      "outputs": [
        {
          "internalType": "contract IERC20",
          "name": "",
          "type": "address"
        }
      ],
      "stateMutability": "view",
      "type": "function"
    },
    {
      "inputs": [],
      "name": "totalPlusToDistribute",
      "outputs": [
        {
          "internalType": "uint256",
          "name": "",
          "type": "uint256"
        }
      ],
      "stateMutability": "view",
      "type": "function"
    },
    {
      "inputs": [
        {
          "internalType": "address",
          "name": "newOwner",
          "type": "address"
        }
      ],
      "name": "transferOwnership",
      "outputs": [],
      "stateMutability": "nonpayable",
      "type": "function"
    },
    {
      "inputs": [
        {
          "internalType": "uint256",
          "name": "newCap",
          "type": "uint256"
        }
      ],
      "name": "updateCap",
      "outputs": [],
      "stateMutability": "nonpayable",
      "type": "function"
    },
    {
      "inputs": [],
      "name": "vestingTime",
      "outputs": [
        {
          "internalType": "uint256",
          "name": "",
          "type": "uint256"
        }
      ],
      "stateMutability": "view",
      "type": "function"
    },
    {
      "inputs": [],
      "name": "wallet",
      "outputs": [
        {
          "internalType": "address payable",
          "name": "",
          "type": "address"
        }
      ],
      "stateMutability": "view",
      "type": "function"
    },
    {
      "inputs": [],
      "name": "weiRaised",
      "outputs": [
        {
          "internalType": "uint256",
          "name": "",
          "type": "uint256"
        }
      ],
      "stateMutability": "view",
      "type": "function"
    }
  ],
  "transactionHash": "0x55e7178ffb60d2f4b04d691f9ed0035d8d6fa95df71f20a706f1ebc96c07a419",
  "args": [
    2,
    10000000000,
    "0xA1D0678e46288803e017d27ccE478Cc34025a099",
    "0x1D7f64e2Fb2Be8c1eac6914f49Ca4E897F5d7539",
    "0xeD24FC36d5Ee211Ea25A80239Fb8C4Cfd80f12Ee",
    1649535099,
    1649635199,
    "10000000000000000000",
    "2000000000000000000",
    345600
  ],
  "solcInputHash": "ad29bda1354106a484e525382d595bf2",
  "bytecode": "0x60a0604052629896806080523480156200001857600080fd5b50604051620019df380380620019df83398181016040526101408110156200003f57600080fd5b508051602082015160408301516060840151608085015160a086015160c087015160e088015161010089015161012090990151600160005597989697959694959394929391929091898989898984620000df576040805162461bcd60e51b815260206004820152601460248201527f43726f776473616c653a20726174652069732030000000000000000000000000604482015290519081900360640190fd5b6001600160a01b038316620001265760405162461bcd60e51b8152600401808060200182810382526025815260200180620019ba6025913960400191505060405180910390fd5b6001600160a01b0382166200016d5760405162461bcd60e51b8152600401808060200182810382526024815260200180620019736024913960400191505060405180910390fd5b6001600160a01b038116620001b45760405162461bcd60e51b8152600401808060200182810382526023815260200180620019976023913960400191505060405180910390fd5b600494909455600592909255600380546001600160a01b039283166001600160a01b03199182161790915560018054938316938216939093179092556002805491909316911617905560006200020962000390565b600780546001600160a01b0319166001600160a01b038316908117909155604051919250906000907f8be0079c531659141344cd1fd0a4f28419497f9722a3daafe3b4186f6b6457e0908290a35042851015620002985760405162461bcd60e51b8152600401808060200182810382526033815260200180620018e56033913960400191505060405180910390fd5b848411620002d85760405162461bcd60e51b8152600401808060200182810382526037815260200180620019186037913960400191505060405180910390fd5b600885905560098490558262000335576040805162461bcd60e51b815260206004820152601960248201527f43617070656443726f776473616c653a20636170206973203000000000000000604482015290519081900360640190fd5b600b83905581620003785760405162461bcd60e51b81526004018080602001828103825260248152602001806200194f6024913960400191505060405180910390fd5b600e91909155600a5550620003949650505050505050565b3390565b608051611527620003be600039806105775280610668528061069752806108e052506115276000f3fe608060405234801561001057600080fd5b50600436106101b95760003560e01c8063900306e2116100f9578063c7dab43611610097578063ef10f07711610071578063ef10f07714610372578063f2fde38b1461037a578063fbdd3e59146103a0578063fc0c546a146103a8576101b9565b8063c7dab4361461030e578063cd2b302614610316578063d3d5879914610333576101b9565b8063a7d68896116100d3578063a7d68896146102b5578063b1c5208e146102d2578063b7a8807c146102da578063c625e9b1146102e2576101b9565b8063900306e21461026a5780639cfd81f614610290578063a27aebbc14610298576101b9565b80634042b66f116101665780634f935945116101405780634f93594514610248578063521eb27314610250578063715018a6146102585780638da5cb5b14610262576101b9565b80634042b66f1461023057806347535d7b146102385780634b6753bc14610240576101b9565b80632c4e722e116101975780632c4e722e146101fc578063355274ea146102045780633ca5b2341461020c576101b9565b80630276650b146101be5780631515bc2b146101d85780631a3480b5146101f4575b600080fd5b6101c66103b0565b60408051918252519081900360200190f35b6101e06103b6565b604080519115158252519081900360200190f35b6101c66103bf565b6101c66103c5565b6101c66103cb565b6102146103d1565b604080516001600160a01b039092168252519081900360200190f35b6101c66103e0565b6101e06103e6565b6101c6610401565b6101e0610407565b610214610412565b610260610421565b005b6102146104e2565b6102606004803603602081101561028057600080fd5b50356001600160a01b03166104f1565b6101c661063c565b610260600480360360208110156102ae57600080fd5b50356106d2565b610260600480360360208110156102cb57600080fd5b5035610818565b6101c66108de565b6101c6610902565b610260600480360360408110156102f857600080fd5b50803590602001356001600160a01b0316610908565b6101c6610a0f565b6102606004803603602081101561032c57600080fd5b5035610a15565b6103596004803603602081101561034957600080fd5b50356001600160a01b0316610ac5565b6040805192835260208301919091528051918290030190f35b610260610ade565b6102606004803603602081101561039057600080fd5b50356001600160a01b0316610c46565b6101c6610d5e565b610214610d64565b600e5481565b60095442115b90565b60055481565b60045481565b600b5481565b6002546001600160a01b031681565b60065481565b600060085442101580156103fc57506009544211155b905090565b60095481565b600b54600654101590565b6003546001600160a01b031681565b610429610d73565b6007546001600160a01b0390811691161461048b576040805162461bcd60e51b815260206004820181905260248201527f4f776e61626c653a2063616c6c6572206973206e6f7420746865206f776e6572604482015290519081900360640190fd5b6007546040516000916001600160a01b0316907f8be0079c531659141344cd1fd0a4f28419497f9722a3daafe3b4186f6b6457e0908390a36007805473ffffffffffffffffffffffffffffffffffffffff19169055565b6007546001600160a01b031690565b6104f96103b6565b61054a576040805162461bcd60e51b815260206004820152601a60248201527f54696d656443726f776473616c653a206e6f7420636c6f736564000000000000604482015290519081900360640190fd5b600061055461063c565b6001600160a01b0383166000908152600c6020526040812054919250906105b2907f0000000000000000000000000000000000000000000000000000000000000000906105ac9085906105a690610d77565b90610d9a565b90610dfa565b6001600160a01b0384166000908152600c6020526040812060010154919250906105dd908390610e3c565b6001600160a01b0385166000908152600c60205260409020600101549091506106069082610e7e565b6001600160a01b038086166000908152600c60205260409020600190810192909255905461063691168583610ed8565b50505050565b6000600954421161064f575060006103bc565b600a5460095461065e91610e7e565b42111561068c57507f00000000000000000000000000000000000000000000000000000000000000006103bc565b6106cb600a546105ac7f00000000000000000000000000000000000000000000000000000000000000006105a660095442610e3c90919063ffffffff16565b90506103bc565b6106da610d73565b6007546001600160a01b0390811691161461073c576040805162461bcd60e51b815260206004820181905260248201527f4f776e61626c653a2063616c6c6572206973206e6f7420746865206f776e6572604482015290519081900360640190fd5b6107446103b6565b15610796576040805162461bcd60e51b815260206004820152601e60248201527f54696d656443726f776473616c653a20616c726561647920636c6f7365640000604482015290519081900360640190fd5b60095481116107d65760405162461bcd60e51b815260040180806020018281038252603f815260200180611466603f913960400191505060405180910390fd5b600954604080519182526020820183905280517f46711e222f558a07afd26e5e71b48ecb0a8b2cdcd40faeb1323e05e2c76a2f329281900390910190a1600955565b610820610d73565b6007546001600160a01b03908116911614610882576040805162461bcd60e51b815260206004820181905260248201527f4f776e61626c653a2063616c6c6572206973206e6f7420746865206f776e6572604482015290519081900360640190fd5b6000600b54116108d9576040805162461bcd60e51b815260206004820152601960248201527f43617070656443726f776473616c653a20636170206973203000000000000000604482015290519081900360640190fd5b600b55565b7f000000000000000000000000000000000000000000000000000000000000000081565b60085481565b60026000541415610960576040805162461bcd60e51b815260206004820152601f60248201527f5265656e7472616e637947756172643a207265656e7472616e742063616c6c00604482015290519081900360640190fd5b600260005561096f8183611057565b600061097a83610d77565b60065490915061098a9084610e7e565b6006556001600160a01b03821661099f610d73565b6001600160a01b03167fee94cf487bcb42e0583204667c51e90589b377a6ed0b7d7f08a88c824cdadc8d8584604051808381526020018281526020019250505060405180910390a36109f18284611184565b6109fb83836111e6565b610a058284611180565b5050600160005550565b600a5481565b610a1d610d73565b6007546001600160a01b03908116911614610a7f576040805162461bcd60e51b815260206004820181905260248201527f4f776e61626c653a2063616c6c6572206973206e6f7420746865206f776e6572604482015290519081900360640190fd5b6000600e5411610ac05760405162461bcd60e51b81526004018080602001828103825260248152602001806114426024913960400191505060405180910390fd5b600e55565b600c602052600090815260409020805460019091015482565b610ae66103b6565b610b37576040805162461bcd60e51b815260206004820152601a60248201527f54696d656443726f776473616c653a206e6f7420636c6f736564000000000000604482015290519081900360640190fd5b610b3f610d73565b6007546001600160a01b03908116911614610ba1576040805162461bcd60e51b815260206004820181905260248201527f4f776e61626c653a2063616c6c6572206973206e6f7420746865206f776e6572604482015290519081900360640190fd5b600354600d54600154604080516370a0823160e01b81523060048201529051610c44946001600160a01b0390811694610c319490939116916370a0823191602480820192602092909190829003018186803b158015610bff57600080fd5b505afa158015610c13573d6000803e3d6000fd5b505050506040513d6020811015610c2957600080fd5b505190610e3c565b6001546001600160a01b03169190610ed8565b565b610c4e610d73565b6007546001600160a01b03908116911614610cb0576040805162461bcd60e51b815260206004820181905260248201527f4f776e61626c653a2063616c6c6572206973206e6f7420746865206f776e6572604482015290519081900360640190fd5b6001600160a01b038116610cf55760405162461bcd60e51b815260040180806020018281038252602681526020018061141c6026913960400191505060405180910390fd5b6007546040516001600160a01b038084169216907f8be0079c531659141344cd1fd0a4f28419497f9722a3daafe3b4186f6b6457e090600090a36007805473ffffffffffffffffffffffffffffffffffffffff19166001600160a01b0392909216919091179055565b600d5481565b6001546001600160a01b031681565b3390565b6000610d946005546105ac60045485610d9a90919063ffffffff16565b92915050565b600082610da957506000610d94565b82820282848281610db657fe5b0414610df35760405162461bcd60e51b81526004018080602001828103825260218152602001806114a56021913960400191505060405180910390fd5b9392505050565b6000610df383836040518060400160405280601a81526020017f536166654d6174683a206469766973696f6e206279207a65726f000000000000815250611271565b6000610df383836040518060400160405280601e81526020017f536166654d6174683a207375627472616374696f6e206f766572666c6f77000081525061132a565b600082820183811015610df3576040805162461bcd60e51b815260206004820152601b60248201527f536166654d6174683a206164646974696f6e206f766572666c6f770000000000604482015290519081900360640190fd5b604080516001600160a01b038481166024830152604480830185905283518084039091018152606490920183526020820180517bffffffffffffffffffffffffffffffffffffffffffffffffffffffff1663a9059cbb60e01b178152925182516000946060949389169392918291908083835b60208310610f6a5780518252601f199092019160209182019101610f4b565b6001836020036101000a0380198251168184511680821785525050505050509050019150506000604051808303816000865af19150503d8060008114610fcc576040519150601f19603f3d011682016040523d82523d6000602084013e610fd1565b606091505b5091509150818015610fff575080511580610fff5750808060200190516020811015610ffc57600080fd5b50515b611050576040805162461bcd60e51b815260206004820152600f60248201527f5452414e534645525f4641494c45440000000000000000000000000000000000604482015290519081900360640190fd5b5050505050565b61105f6103e6565b6110b0576040805162461bcd60e51b815260206004820152601860248201527f54696d656443726f776473616c653a206e6f74206f70656e0000000000000000604482015290519081900360640190fd5b6110ba8282611384565b600b546006546110ca9083610e7e565b111561111d576040805162461bcd60e51b815260206004820152601d60248201527f43617070656443726f776473616c653a20636170206578636565646564000000604482015290519081900360640190fd5b600e546001600160a01b0383166000908152600c60205260409020546111439083610e7e565b11156111805760405162461bcd60e51b815260040180806020018281038252602b8152602001806114c6602b913960400191505060405180910390fd5b5050565b61118e8282611180565b6001600160a01b0382166000908152600c60205260409020546111b19082610e7e565b6001600160a01b0383166000908152600c60205260409020556111df6111d682610d77565b600d5490610e7e565b600d555050565b600254600354604080516323b872dd60e01b81526001600160a01b038581166004830152928316602482015260448101869052905191909216916323b872dd9160648083019260209291908290030181600087803b15801561124757600080fd5b505af115801561125b573d6000803e3d6000fd5b505050506040513d602081101561063657600080fd5b600081836112fd5760405162461bcd60e51b81526004018080602001828103825283818151815260200191508051906020019080838360005b838110156112c25781810151838201526020016112aa565b50505050905090810190601f1680156112ef5780820380516001836020036101000a031916815260200191505b509250505060405180910390fd5b50600083858161130957fe5b04905083858161131557fe5b0681850201851461132257fe5b949350505050565b6000818484111561137c5760405162461bcd60e51b81526020600482018181528351602484015283519092839260449091019190850190808383600083156112c25781810151838201526020016112aa565b505050900390565b6001600160a01b0382166113c95760405162461bcd60e51b815260040180806020018281038252602a8152602001806114f1602a913960400191505060405180910390fd5b80611180576040805162461bcd60e51b815260206004820152601960248201527f43726f776473616c653a20776569416d6f756e74206973203000000000000000604482015290519081900360640190fdfe4f776e61626c653a206e6577206f776e657220697320746865207a65726f206164647265737343617070656443726f776473616c653a20696e646976696475616c20636170206973203054696d656443726f776473616c653a206e657720636c6f73696e672074696d65206973206265666f72652063757272656e7420636c6f73696e672074696d65536166654d6174683a206d756c7469706c69636174696f6e206f766572666c6f7743617070656443726f776473616c653a2062656e656669636961727927732063617020657863656564656443726f776473616c653a2062656e656669636961727920697320746865207a65726f2061646472657373a164736f6c6343000705000a54696d656443726f776473616c653a206f70656e696e672074696d65206973206265666f72652063757272656e742074696d6554696d656443726f776473616c653a206f70656e696e672074696d65206973206e6f74206265666f726520636c6f73696e672074696d6543617070656443726f776473616c653a20696e646976696475616c20636170206973203043726f776473616c653a20746f6b656e20697320746865207a65726f206164647265737343726f776473616c653a206275736420697320746865207a65726f206164647265737343726f776473616c653a2077616c6c657420697320746865207a65726f2061646472657373",
  "devdoc": {
    "events": {
      "TimedCrowdsaleExtended(uint256,uint256)": {
        "params": {
          "newClosingTime": "new closing time",
          "prevClosingTime": "old closing time"
        }
      }
    },
    "kind": "dev",
    "methods": {
      "buyTokens(uint256,address)": {
        "details": "low level token purchase ***DO NOT OVERRIDE*** This function has a non-reentrancy guard, so it shouldn't be called by another `nonReentrant` function.",
        "params": {
          "beneficiary": "Recipient of the token purchase"
        }
      },
      "capReached()": {
        "details": "Checks whether the cap has been reached.",
        "returns": {
          "_0": "Whether the cap was reached"
        }
      },
      "extendTime(uint256)": {
        "details": "Extend crowdsale.",
        "params": {
          "newClosingTime": "Crowdsale closing time"
        }
      },
      "hasClosed()": {
        "details": "Checks whether the period in which the crowdsale is open has already elapsed.",
        "returns": {
          "_0": "Whether crowdsale period has elapsed"
        }
      },
      "isOpen()": {
        "returns": {
          "_0": "true if the crowdsale is open, false otherwise."
        }
      },
      "owner()": {
        "details": "Returns the address of the current owner."
      },
      "renounceOwnership()": {
        "details": "Leaves the contract without owner. It will not be possible to call `onlyOwner` functions anymore. Can only be called by the current owner. NOTE: Renouncing ownership will leave the contract without an owner, thereby removing any functionality that is only available to the owner."
      },
      "transferOwnership(address)": {
        "details": "Transfers ownership of the contract to a new account (`newOwner`). Can only be called by the current owner."
      }
    },
    "version": 1
  },
  "userdoc": {
    "events": {
      "TimedCrowdsaleExtended(uint256,uint256)": {
        "notice": "Event for crowdsale extending"
      },
      "TokensPrePurchased(address,address,uint256,uint256)": {
        "notice": "Event for token purchase logging"
      }
    },
    "kind": "user",
    "methods": {},
    "version": 1
  },
  "storageLayout": {
    "storage": [
      {
        "astId": 142,
        "contract": "contracts/presale/PlutusPresale.sol:PlutusPresale",
        "label": "_status",
        "offset": 0,
        "slot": "0",
        "type": "t_uint256"
      },
      {
        "astId": 9396,
        "contract": "contracts/presale/PlutusPresale.sol:PlutusPresale",
        "label": "token",
        "offset": 0,
        "slot": "1",
        "type": "t_contract(IERC20)6951"
      },
      {
        "astId": 9398,
        "contract": "contracts/presale/PlutusPresale.sol:PlutusPresale",
        "label": "busd",
        "offset": 0,
        "slot": "2",
        "type": "t_contract(IERC20)6951"
      },
      {
        "astId": 9400,
        "contract": "contracts/presale/PlutusPresale.sol:PlutusPresale",
        "label": "wallet",
        "offset": 0,
        "slot": "3",
        "type": "t_address_payable"
      },
      {
        "astId": 9402,
        "contract": "contracts/presale/PlutusPresale.sol:PlutusPresale",
        "label": "rate",
        "offset": 0,
        "slot": "4",
        "type": "t_uint256"
      },
      {
        "astId": 9404,
        "contract": "contracts/presale/PlutusPresale.sol:PlutusPresale",
        "label": "rateDecimals",
        "offset": 0,
        "slot": "5",
        "type": "t_uint256"
      },
      {
        "astId": 9406,
        "contract": "contracts/presale/PlutusPresale.sol:PlutusPresale",
        "label": "weiRaised",
        "offset": 0,
        "slot": "6",
        "type": "t_uint256"
      },
      {
        "astId": 30,
        "contract": "contracts/presale/PlutusPresale.sol:PlutusPresale",
        "label": "_owner",
        "offset": 0,
        "slot": "7",
        "type": "t_address"
      },
      {
        "astId": 9674,
        "contract": "contracts/presale/PlutusPresale.sol:PlutusPresale",
        "label": "openingTime",
        "offset": 0,
        "slot": "8",
        "type": "t_uint256"
      },
      {
        "astId": 9676,
        "contract": "contracts/presale/PlutusPresale.sol:PlutusPresale",
        "label": "closingTime",
        "offset": 0,
        "slot": "9",
        "type": "t_uint256"
      },
      {
        "astId": 9678,
        "contract": "contracts/presale/PlutusPresale.sol:PlutusPresale",
        "label": "vestingTime",
        "offset": 0,
        "slot": "10",
        "type": "t_uint256"
      },
      {
        "astId": 9683,
        "contract": "contracts/presale/PlutusPresale.sol:PlutusPresale",
        "label": "cap",
        "offset": 0,
        "slot": "11",
        "type": "t_uint256"
      },
      {
        "astId": 9692,
        "contract": "contracts/presale/PlutusPresale.sol:PlutusPresale",
        "label": "preBuys",
        "offset": 0,
        "slot": "12",
        "type": "t_mapping(t_address,t_struct(PreBuy)9688_storage)"
      },
      {
        "astId": 9694,
        "contract": "contracts/presale/PlutusPresale.sol:PlutusPresale",
        "label": "totalPlusToDistribute",
        "offset": 0,
        "slot": "13",
        "type": "t_uint256"
      },
      {
        "astId": 9696,
        "contract": "contracts/presale/PlutusPresale.sol:PlutusPresale",
        "label": "individualCap",
        "offset": 0,
        "slot": "14",
        "type": "t_uint256"
      }
    ],
    "types": {
      "t_address": {
        "encoding": "inplace",
        "label": "address",
        "numberOfBytes": "20"
      },
      "t_address_payable": {
        "encoding": "inplace",
        "label": "address payable",
        "numberOfBytes": "20"
      },
      "t_contract(IERC20)6951": {
        "encoding": "inplace",
        "label": "contract IERC20",
        "numberOfBytes": "20"
      },
      "t_mapping(t_address,t_struct(PreBuy)9688_storage)": {
        "encoding": "mapping",
        "key": "t_address",
        "label": "mapping(address => struct PlutusPresale.PreBuy)",
        "numberOfBytes": "32",
        "value": "t_struct(PreBuy)9688_storage"
      },
      "t_struct(PreBuy)9688_storage": {
        "encoding": "inplace",
        "label": "struct PlutusPresale.PreBuy",
        "members": [
          {
            "astId": 9685,
            "contract": "contracts/presale/PlutusPresale.sol:PlutusPresale",
            "label": "weiAmount",
            "offset": 0,
            "slot": "0",
            "type": "t_uint256"
          },
          {
            "astId": 9687,
            "contract": "contracts/presale/PlutusPresale.sol:PlutusPresale",
            "label": "plusAmountClaimed",
            "offset": 0,
            "slot": "1",
            "type": "t_uint256"
          }
        ],
        "numberOfBytes": "64"
      },
      "t_uint256": {
        "encoding": "inplace",
        "label": "uint256",
        "numberOfBytes": "32"
      }
    }
  }
}