{
  "address": "0x5B5609866ee78be882235eD1f0788c9691Df2353",
  "abi": [
    {
      "inputs": [
        {
          "internalType": "uint256",
          "name": "_rate",
          "type": "uint256"
        },
        {
          "internalType": "uint256",
          "name": "_rateDecimals",
          "type": "uint256"
        },
        {
          "internalType": "address payable",
          "name": "_wallet",
          "type": "address"
        },
        {
          "internalType": "contract IERC20",
          "name": "_token",
          "type": "address"
        },
        {
          "internalType": "contract IERC20",
          "name": "_busd",
          "type": "address"
        },
        {
          "internalType": "uint256",
          "name": "_openingTime",
          "type": "uint256"
        },
        {
          "internalType": "uint256",
          "name": "_closingTime",
          "type": "uint256"
        },
        {
          "internalType": "uint256",
          "name": "_cap",
          "type": "uint256"
        },
        {
          "internalType": "uint256",
          "name": "_individualCap",
          "type": "uint256"
        }
      ],
      "stateMutability": "nonpayable",
      "type": "constructor"
    },
    {
      "anonymous": false,
      "inputs": [
        {
          "indexed": true,
          "internalType": "address",
          "name": "previousOwner",
          "type": "address"
        },
        {
          "indexed": true,
          "internalType": "address",
          "name": "newOwner",
          "type": "address"
        }
      ],
      "name": "OwnershipTransferred",
      "type": "event"
    },
    {
      "anonymous": false,
      "inputs": [
        {
          "indexed": false,
          "internalType": "uint256",
          "name": "prevClosingTime",
          "type": "uint256"
        },
        {
          "indexed": false,
          "internalType": "uint256",
          "name": "newClosingTime",
          "type": "uint256"
        }
      ],
      "name": "TimedCrowdsaleExtended",
      "type": "event"
    },
    {
      "anonymous": false,
      "inputs": [
        {
          "indexed": true,
          "internalType": "address",
          "name": "purchaser",
          "type": "address"
        },
        {
          "indexed": true,
          "internalType": "address",
          "name": "beneficiary",
          "type": "address"
        },
        {
          "indexed": false,
          "internalType": "uint256",
          "name": "value",
          "type": "uint256"
        },
        {
          "indexed": false,
          "internalType": "uint256",
          "name": "amount",
          "type": "uint256"
        }
      ],
      "name": "TokensPurchased",
      "type": "event"
    },
    {
      "inputs": [],
      "name": "busd",
      "outputs": [
        {
          "internalType": "contract IERC20",
          "name": "",
          "type": "address"
        }
      ],
      "stateMutability": "view",
      "type": "function"
    },
    {
      "inputs": [
        {
          "internalType": "uint256",
          "name": "_amount",
          "type": "uint256"
        },
        {
          "internalType": "address",
          "name": "beneficiary",
          "type": "address"
        }
      ],
      "name": "buyTokens",
      "outputs": [],
      "stateMutability": "nonpayable",
      "type": "function"
    },
    {
      "inputs": [],
      "name": "cap",
      "outputs": [
        {
          "internalType": "uint256",
          "name": "",
          "type": "uint256"
        }
      ],
      "stateMutability": "view",
      "type": "function"
    },
    {
      "inputs": [],
      "name": "capReached",
      "outputs": [
        {
          "internalType": "bool",
          "name": "",
          "type": "bool"
        }
      ],
      "stateMutability": "view",
      "type": "function"
    },
    {
      "inputs": [],
      "name": "closingTime",
      "outputs": [
        {
          "internalType": "uint256",
          "name": "",
          "type": "uint256"
        }
      ],
      "stateMutability": "view",
      "type": "function"
    },
    {
      "inputs": [
        {
          "internalType": "address",
          "name": "",
          "type": "address"
        }
      ],
      "name": "contributions",
      "outputs": [
        {
          "internalType": "uint256",
          "name": "",
          "type": "uint256"
        }
      ],
      "stateMutability": "view",
      "type": "function"
    },
    {
      "inputs": [
        {
          "internalType": "uint256",
          "name": "newClosingTime",
          "type": "uint256"
        }
      ],
      "name": "extendTime",
      "outputs": [],
      "stateMutability": "nonpayable",
      "type": "function"
    },
    {
      "inputs": [],
      "name": "hasClosed",
      "outputs": [
        {
          "internalType": "bool",
          "name": "",
          "type": "bool"
        }
      ],
      "stateMutability": "view",
      "type": "function"
    },
    {
      "inputs": [],
      "name": "individualCap",
      "outputs": [
        {
          "internalType": "uint256",
          "name": "",
          "type": "uint256"
        }
      ],
      "stateMutability": "view",
      "type": "function"
    },
    {
      "inputs": [],
      "name": "isOpen",
      "outputs": [
        {
          "internalType": "bool",
          "name": "",
          "type": "bool"
        }
      ],
      "stateMutability": "view",
      "type": "function"
    },
    {
      "inputs": [],
      "name": "openingTime",
      "outputs": [
        {
          "internalType": "uint256",
          "name": "",
          "type": "uint256"
        }
      ],
      "stateMutability": "view",
      "type": "function"
    },
    {
      "inputs": [],
      "name": "owner",
      "outputs": [
        {
          "internalType": "address",
          "name": "",
          "type": "address"
        }
      ],
      "stateMutability": "view",
      "type": "function"
    },
    {
      "inputs": [],
      "name": "rate",
      "outputs": [
        {
          "internalType": "uint256",
          "name": "",
          "type": "uint256"
        }
      ],
      "stateMutability": "view",
      "type": "function"
    },
    {
      "inputs": [],
      "name": "rateDecimals",
      "outputs": [
        {
          "internalType": "uint256",
          "name": "",
          "type": "uint256"
        }
      ],
      "stateMutability": "view",
      "type": "function"
    },
    {
      "inputs": [],
      "name": "renounceOwnership",
      "outputs": [],
      "stateMutability": "nonpayable",
      "type": "function"
    },
    {
      "inputs": [
        {
          "internalType": "uint256",
          "name": "newIndividualCap",
          "type": "uint256"
        }
      ],
      "name": "setIndividualCap",
      "outputs": [],
      "stateMutability": "nonpayable",
      "type": "function"
    },
    {
      "inputs": [],
      "name": "token",
      "outputs": [
        {
          "internalType": "contract IERC20",
          "name": "",
          "type": "address"
        }
      ],
      "stateMutability": "view",
      "type": "function"
    },
    {
      "inputs": [
        {
          "internalType": "address",
          "name": "newOwner",
          "type": "address"
        }
      ],
      "name": "transferOwnership",
      "outputs": [],
      "stateMutability": "nonpayable",
      "type": "function"
    },
    {
      "inputs": [
        {
          "internalType": "uint256",
          "name": "newCap",
          "type": "uint256"
        }
      ],
      "name": "updateCap",
      "outputs": [],
      "stateMutability": "nonpayable",
      "type": "function"
    },
    {
      "inputs": [],
      "name": "wallet",
      "outputs": [
        {
          "internalType": "address payable",
          "name": "",
          "type": "address"
        }
      ],
      "stateMutability": "view",
      "type": "function"
    },
    {
      "inputs": [],
      "name": "weiRaised",
      "outputs": [
        {
          "internalType": "uint256",
          "name": "",
          "type": "uint256"
        }
      ],
      "stateMutability": "view",
      "type": "function"
    }
  ],
  "transactionHash": "0xd52df5f429295a2ef522ca11ee9ae1a06401f36f325b1e30a3ccf9f8f40ea240",
  "args": [
    2,
    10000000000,
    "0xA1D0678e46288803e017d27ccE478Cc34025a099",
    "0x1D7f64e2Fb2Be8c1eac6914f49Ca4E897F5d7539",
    "0xeD24FC36d5Ee211Ea25A80239Fb8C4Cfd80f12Ee",
    1643343863,
    1643583940,
    "10000000000000000000",
    "2000000000000000000"
  ],
  "solcInputHash": "bd29b16be8de076770f2698a64e7ec01",
  "bytecode": "0x60806040523480156200001157600080fd5b506040516200150d3803806200150d83398181016040526101208110156200003857600080fd5b508051602082015160408301516060840151608085015160a086015160c087015160e0880151610100909801516001600055969795969495939492939192909190888888888884620000d1576040805162461bcd60e51b815260206004820152601460248201527f43726f776473616c653a20726174652069732030000000000000000000000000604482015290519081900360640190fd5b6001600160a01b038316620001185760405162461bcd60e51b8152600401808060200182810382526025815260200180620014e86025913960400191505060405180910390fd5b6001600160a01b0382166200015f5760405162461bcd60e51b8152600401808060200182810382526024815260200180620014a16024913960400191505060405180910390fd5b6001600160a01b038116620001a65760405162461bcd60e51b8152600401808060200182810382526023815260200180620014c56023913960400191505060405180910390fd5b600494909455600592909255600380546001600160a01b039283166001600160a01b0319918216179091556001805493831693821693909317909255600280549190931691161790556000620001fb6200037c565b600780546001600160a01b0319166001600160a01b038316908117909155604051919250906000907f8be0079c531659141344cd1fd0a4f28419497f9722a3daafe3b4186f6b6457e0908290a350428410156200028a5760405162461bcd60e51b8152600401808060200182810382526033815260200180620014136033913960400191505060405180910390fd5b838311620002ca5760405162461bcd60e51b8152600401808060200182810382526037815260200180620014466037913960400191505060405180910390fd5b600884905560098390558162000327576040805162461bcd60e51b815260206004820152601960248201527f43617070656443726f776473616c653a20636170206973203000000000000000604482015290519081900360640190fd5b600a829055806200036a5760405162461bcd60e51b81526004018080602001828103825260248152602001806200147d6024913960400191505060405180910390fd5b600c5550620003809650505050505050565b3390565b61108380620003906000396000f3fe608060405234801561001057600080fd5b50600436106101775760003560e01c80634f935945116100d8578063a7d688961161008c578063cd2b302611610066578063cd2b3026146102bc578063f2fde38b146102d9578063fc0c546a146102ff57610177565b8063a7d688961461026b578063b7a8807c14610288578063c625e9b11461029057610177565b8063715018a6116100bd578063715018a61461023c5780638da5cb5b14610246578063a27aebbc1461024e57610177565b80634f9359451461022c578063521eb2731461023457610177565b80633ca5b2341161012f57806342e94c901161011457806342e94c90146101f657806347535d7b1461021c5780634b6753bc1461022457610177565b80633ca5b234146101ca5780634042b66f146101ee57610177565b80631a3480b5116101605780631a3480b5146101b25780632c4e722e146101ba578063355274ea146101c257610177565b80630276650b1461017c5780631515bc2b14610196575b600080fd5b610184610307565b60408051918252519081900360200190f35b61019e61030d565b604080519115158252519081900360200190f35b610184610315565b61018461031b565b610184610321565b6101d2610327565b604080516001600160a01b039092168252519081900360200190f35b610184610336565b6101846004803603602081101561020c57600080fd5b50356001600160a01b031661033c565b61019e61034e565b610184610369565b61019e61036f565b6101d261037a565b610244610389565b005b6101d261044a565b6102446004803603602081101561026457600080fd5b5035610459565b6102446004803603602081101561028157600080fd5b503561059f565b610184610665565b610244600480360360408110156102a657600080fd5b50803590602001356001600160a01b031661066b565b610244600480360360208110156102d257600080fd5b503561077c565b610244600480360360208110156102ef57600080fd5b50356001600160a01b031661082c565b6101d2610944565b600c5481565b600954421190565b60055481565b60045481565b600a5481565b6002546001600160a01b031681565b60065481565b600b6020526000908152604090205481565b6000600854421015801561036457506009544211155b905090565b60095481565b600a54600654101590565b6003546001600160a01b031681565b610391610953565b6007546001600160a01b039081169116146103f3576040805162461bcd60e51b815260206004820181905260248201527f4f776e61626c653a2063616c6c6572206973206e6f7420746865206f776e6572604482015290519081900360640190fd5b6007546040516000916001600160a01b0316907f8be0079c531659141344cd1fd0a4f28419497f9722a3daafe3b4186f6b6457e0908390a36007805473ffffffffffffffffffffffffffffffffffffffff19169055565b6007546001600160a01b031690565b610461610953565b6007546001600160a01b039081169116146104c3576040805162461bcd60e51b815260206004820181905260248201527f4f776e61626c653a2063616c6c6572206973206e6f7420746865206f776e6572604482015290519081900360640190fd5b6104cb61030d565b1561051d576040805162461bcd60e51b815260206004820152601e60248201527f54696d656443726f776473616c653a20616c726561647920636c6f7365640000604482015290519081900360640190fd5b600954811161055d5760405162461bcd60e51b815260040180806020018281038252603f815260200180610fc2603f913960400191505060405180910390fd5b600954604080519182526020820183905280517f46711e222f558a07afd26e5e71b48ecb0a8b2cdcd40faeb1323e05e2c76a2f329281900390910190a1600955565b6105a7610953565b6007546001600160a01b03908116911614610609576040805162461bcd60e51b815260206004820181905260248201527f4f776e61626c653a2063616c6c6572206973206e6f7420746865206f776e6572604482015290519081900360640190fd5b6000600a5411610660576040805162461bcd60e51b815260206004820152601960248201527f43617070656443726f776473616c653a20636170206973203000000000000000604482015290519081900360640190fd5b600a55565b60085481565b600260005414156106c3576040805162461bcd60e51b815260206004820152601f60248201527f5265656e7472616e637947756172643a207265656e7472616e742063616c6c00604482015290519081900360640190fd5b60026000556106d28183610957565b60006106dd83610a84565b6006549091506106ed9084610aad565b6006556106fa8282610b0e565b816001600160a01b031661070c610953565b6001600160a01b03167f6faf93231a456e552dbc9961f58d9713ee4f2e69d15f1975b050ef0911053a7b8584604051808381526020018281526020019250505060405180910390a361075e8284610b18565b6107688383610b65565b6107728284610a80565b5050600160005550565b610784610953565b6007546001600160a01b039081169116146107e6576040805162461bcd60e51b815260206004820181905260248201527f4f776e61626c653a2063616c6c6572206973206e6f7420746865206f776e6572604482015290519081900360640190fd5b6000600c54116108275760405162461bcd60e51b8152600401808060200182810382526024815260200180610f9e6024913960400191505060405180910390fd5b600c55565b610834610953565b6007546001600160a01b03908116911614610896576040805162461bcd60e51b815260206004820181905260248201527f4f776e61626c653a2063616c6c6572206973206e6f7420746865206f776e6572604482015290519081900360640190fd5b6001600160a01b0381166108db5760405162461bcd60e51b8152600401808060200182810382526026815260200180610f786026913960400191505060405180910390fd5b6007546040516001600160a01b038084169216907f8be0079c531659141344cd1fd0a4f28419497f9722a3daafe3b4186f6b6457e090600090a36007805473ffffffffffffffffffffffffffffffffffffffff19166001600160a01b0392909216919091179055565b6001546001600160a01b031681565b3390565b61095f61034e565b6109b0576040805162461bcd60e51b815260206004820152601860248201527f54696d656443726f776473616c653a206e6f74206f70656e0000000000000000604482015290519081900360640190fd5b6109ba8282610bf6565b600a546006546109ca9083610aad565b1115610a1d576040805162461bcd60e51b815260206004820152601d60248201527f43617070656443726f776473616c653a20636170206578636565646564000000604482015290519081900360640190fd5b600c546001600160a01b0383166000908152600b6020526040902054610a439083610aad565b1115610a805760405162461bcd60e51b815260040180806020018281038252602b815260200180611022602b913960400191505060405180910390fd5b5050565b6000610aa7600554610aa160045485610c8d90919063ffffffff16565b90610ce6565b92915050565b600082820183811015610b07576040805162461bcd60e51b815260206004820152601b60248201527f536166654d6174683a206164646974696f6e206f766572666c6f770000000000604482015290519081900360640190fd5b9392505050565b610a808282610d28565b610b228282610a80565b6001600160a01b0382166000908152600b6020526040902054610b459082610aad565b6001600160a01b039092166000908152600b602052604090209190915550565b600254600354604080516323b872dd60e01b81526001600160a01b038581166004830152928316602482015260448101869052905191909216916323b872dd9160648083019260209291908290030181600087803b158015610bc657600080fd5b505af1158015610bda573d6000803e3d6000fd5b505050506040513d6020811015610bf057600080fd5b50505050565b6001600160a01b038216610c3b5760405162461bcd60e51b815260040180806020018281038252602a81526020018061104d602a913960400191505060405180910390fd5b80610a80576040805162461bcd60e51b815260206004820152601960248201527f43726f776473616c653a20776569416d6f756e74206973203000000000000000604482015290519081900360640190fd5b600082610c9c57506000610aa7565b82820282848281610ca957fe5b0414610b075760405162461bcd60e51b81526004018080602001828103825260218152602001806110016021913960400191505060405180910390fd5b6000610b0783836040518060400160405280601a81526020017f536166654d6174683a206469766973696f6e206279207a65726f000000000000815250610d3f565b600154610a80906001600160a01b03168383610df8565b60008183610dcb5760405162461bcd60e51b81526004018080602001828103825283818151815260200191508051906020019080838360005b83811015610d90578181015183820152602001610d78565b50505050905090810190601f168015610dbd5780820380516001836020036101000a031916815260200191505b509250505060405180910390fd5b506000838581610dd757fe5b049050838581610de357fe5b06818502018514610df057fe5b949350505050565b604080516001600160a01b038481166024830152604480830185905283518084039091018152606490920183526020820180517bffffffffffffffffffffffffffffffffffffffffffffffffffffffff1663a9059cbb60e01b178152925182516000946060949389169392918291908083835b60208310610e8a5780518252601f199092019160209182019101610e6b565b6001836020036101000a0380198251168184511680821785525050505050509050019150506000604051808303816000865af19150503d8060008114610eec576040519150601f19603f3d011682016040523d82523d6000602084013e610ef1565b606091505b5091509150818015610f1f575080511580610f1f5750808060200190516020811015610f1c57600080fd5b50515b610f70576040805162461bcd60e51b815260206004820152600f60248201527f5452414e534645525f4641494c45440000000000000000000000000000000000604482015290519081900360640190fd5b505050505056fe4f776e61626c653a206e6577206f776e657220697320746865207a65726f206164647265737343617070656443726f776473616c653a20696e646976696475616c20636170206973203054696d656443726f776473616c653a206e657720636c6f73696e672074696d65206973206265666f72652063757272656e7420636c6f73696e672074696d65536166654d6174683a206d756c7469706c69636174696f6e206f766572666c6f7743617070656443726f776473616c653a2062656e656669636961727927732063617020657863656564656443726f776473616c653a2062656e656669636961727920697320746865207a65726f2061646472657373a164736f6c6343000705000a54696d656443726f776473616c653a206f70656e696e672074696d65206973206265666f72652063757272656e742074696d6554696d656443726f776473616c653a206f70656e696e672074696d65206973206e6f74206265666f726520636c6f73696e672074696d6543617070656443726f776473616c653a20696e646976696475616c20636170206973203043726f776473616c653a20746f6b656e20697320746865207a65726f206164647265737343726f776473616c653a206275736420697320746865207a65726f206164647265737343726f776473616c653a2077616c6c657420697320746865207a65726f2061646472657373",
  "devdoc": {
    "events": {
      "TimedCrowdsaleExtended(uint256,uint256)": {
        "params": {
          "newClosingTime": "new closing time",
          "prevClosingTime": "old closing time"
        }
      }
    },
    "kind": "dev",
    "methods": {
      "buyTokens(uint256,address)": {
        "details": "low level token purchase ***DO NOT OVERRIDE*** This function has a non-reentrancy guard, so it shouldn't be called by another `nonReentrant` function.",
        "params": {
          "beneficiary": "Recipient of the token purchase"
        }
      },
      "capReached()": {
        "details": "Checks whether the cap has been reached.",
        "returns": {
          "_0": "Whether the cap was reached"
        }
      },
      "extendTime(uint256)": {
        "details": "Extend crowdsale.",
        "params": {
          "newClosingTime": "Crowdsale closing time"
        }
      },
      "hasClosed()": {
        "details": "Checks whether the period in which the crowdsale is open has already elapsed.",
        "returns": {
          "_0": "Whether crowdsale period has elapsed"
        }
      },
      "isOpen()": {
        "returns": {
          "_0": "true if the crowdsale is open, false otherwise."
        }
      },
      "owner()": {
        "details": "Returns the address of the current owner."
      },
      "renounceOwnership()": {
        "details": "Leaves the contract without owner. It will not be possible to call `onlyOwner` functions anymore. Can only be called by the current owner. NOTE: Renouncing ownership will leave the contract without an owner, thereby removing any functionality that is only available to the owner."
      },
      "transferOwnership(address)": {
        "details": "Transfers ownership of the contract to a new account (`newOwner`). Can only be called by the current owner."
      }
    },
    "version": 1
  },
  "userdoc": {
    "events": {
      "TimedCrowdsaleExtended(uint256,uint256)": {
        "notice": "Event for crowdsale extending"
      },
      "TokensPurchased(address,address,uint256,uint256)": {
        "notice": "Event for token purchase logging"
      }
    },
    "kind": "user",
    "methods": {},
    "version": 1
  },
  "storageLayout": {
    "storage": [
      {
        "astId": 142,
        "contract": "contracts/presale/PlutusPresale.sol:PlutusPresale",
        "label": "_status",
        "offset": 0,
        "slot": "0",
        "type": "t_uint256"
      },
      {
        "astId": 9396,
        "contract": "contracts/presale/PlutusPresale.sol:PlutusPresale",
        "label": "token",
        "offset": 0,
        "slot": "1",
        "type": "t_contract(IERC20)6951"
      },
      {
        "astId": 9398,
        "contract": "contracts/presale/PlutusPresale.sol:PlutusPresale",
        "label": "busd",
        "offset": 0,
        "slot": "2",
        "type": "t_contract(IERC20)6951"
      },
      {
        "astId": 9400,
        "contract": "contracts/presale/PlutusPresale.sol:PlutusPresale",
        "label": "wallet",
        "offset": 0,
        "slot": "3",
        "type": "t_address_payable"
      },
      {
        "astId": 9402,
        "contract": "contracts/presale/PlutusPresale.sol:PlutusPresale",
        "label": "rate",
        "offset": 0,
        "slot": "4",
        "type": "t_uint256"
      },
      {
        "astId": 9404,
        "contract": "contracts/presale/PlutusPresale.sol:PlutusPresale",
        "label": "rateDecimals",
        "offset": 0,
        "slot": "5",
        "type": "t_uint256"
      },
      {
        "astId": 9406,
        "contract": "contracts/presale/PlutusPresale.sol:PlutusPresale",
        "label": "weiRaised",
        "offset": 0,
        "slot": "6",
        "type": "t_uint256"
      },
      {
        "astId": 30,
        "contract": "contracts/presale/PlutusPresale.sol:PlutusPresale",
        "label": "_owner",
        "offset": 0,
        "slot": "7",
        "type": "t_address"
      },
      {
        "astId": 9676,
        "contract": "contracts/presale/PlutusPresale.sol:PlutusPresale",
        "label": "openingTime",
        "offset": 0,
        "slot": "8",
        "type": "t_uint256"
      },
      {
        "astId": 9678,
        "contract": "contracts/presale/PlutusPresale.sol:PlutusPresale",
        "label": "closingTime",
        "offset": 0,
        "slot": "9",
        "type": "t_uint256"
      },
      {
        "astId": 9680,
        "contract": "contracts/presale/PlutusPresale.sol:PlutusPresale",
        "label": "cap",
        "offset": 0,
        "slot": "10",
        "type": "t_uint256"
      },
      {
        "astId": 9684,
        "contract": "contracts/presale/PlutusPresale.sol:PlutusPresale",
        "label": "contributions",
        "offset": 0,
        "slot": "11",
        "type": "t_mapping(t_address,t_uint256)"
      },
      {
        "astId": 9686,
        "contract": "contracts/presale/PlutusPresale.sol:PlutusPresale",
        "label": "individualCap",
        "offset": 0,
        "slot": "12",
        "type": "t_uint256"
      }
    ],
    "types": {
      "t_address": {
        "encoding": "inplace",
        "label": "address",
        "numberOfBytes": "20"
      },
      "t_address_payable": {
        "encoding": "inplace",
        "label": "address payable",
        "numberOfBytes": "20"
      },
      "t_contract(IERC20)6951": {
        "encoding": "inplace",
        "label": "contract IERC20",
        "numberOfBytes": "20"
      },
      "t_mapping(t_address,t_uint256)": {
        "encoding": "mapping",
        "key": "t_address",
        "label": "mapping(address => uint256)",
        "numberOfBytes": "32",
        "value": "t_uint256"
      },
      "t_uint256": {
        "encoding": "inplace",
        "label": "uint256",
        "numberOfBytes": "32"
      }
    }
  }
}