{
  "address": "0x932375cFCC0Db5F7e582bC2137364D728f252758",
  "abi": [
    {
      "inputs": [
        {
          "internalType": "uint256",
          "name": "_rate",
          "type": "uint256"
        },
        {
          "internalType": "uint256",
          "name": "_rateDecimals",
          "type": "uint256"
        },
        {
          "internalType": "address payable",
          "name": "_wallet",
          "type": "address"
        },
        {
          "internalType": "contract IERC20",
          "name": "_token",
          "type": "address"
        },
        {
          "internalType": "uint256",
          "name": "_openingTime",
          "type": "uint256"
        },
        {
          "internalType": "uint256",
          "name": "_closingTime",
          "type": "uint256"
        },
        {
          "internalType": "uint256",
          "name": "_cap",
          "type": "uint256"
        },
        {
          "internalType": "uint256",
          "name": "_individualCap",
          "type": "uint256"
        }
      ],
      "stateMutability": "nonpayable",
      "type": "constructor"
    },
    {
      "anonymous": false,
      "inputs": [
        {
          "indexed": true,
          "internalType": "address",
          "name": "previousOwner",
          "type": "address"
        },
        {
          "indexed": true,
          "internalType": "address",
          "name": "newOwner",
          "type": "address"
        }
      ],
      "name": "OwnershipTransferred",
      "type": "event"
    },
    {
      "anonymous": false,
      "inputs": [
        {
          "indexed": false,
          "internalType": "uint256",
          "name": "prevClosingTime",
          "type": "uint256"
        },
        {
          "indexed": false,
          "internalType": "uint256",
          "name": "newClosingTime",
          "type": "uint256"
        }
      ],
      "name": "TimedCrowdsaleExtended",
      "type": "event"
    },
    {
      "anonymous": false,
      "inputs": [
        {
          "indexed": true,
          "internalType": "address",
          "name": "purchaser",
          "type": "address"
        },
        {
          "indexed": true,
          "internalType": "address",
          "name": "beneficiary",
          "type": "address"
        },
        {
          "indexed": false,
          "internalType": "uint256",
          "name": "value",
          "type": "uint256"
        },
        {
          "indexed": false,
          "internalType": "uint256",
          "name": "amount",
          "type": "uint256"
        }
      ],
      "name": "TokensPurchased",
      "type": "event"
    },
    {
      "inputs": [
        {
          "internalType": "address",
          "name": "beneficiary",
          "type": "address"
        }
      ],
      "name": "buyTokens",
      "outputs": [],
      "stateMutability": "payable",
      "type": "function"
    },
    {
      "inputs": [],
      "name": "cap",
      "outputs": [
        {
          "internalType": "uint256",
          "name": "",
          "type": "uint256"
        }
      ],
      "stateMutability": "view",
      "type": "function"
    },
    {
      "inputs": [],
      "name": "capReached",
      "outputs": [
        {
          "internalType": "bool",
          "name": "",
          "type": "bool"
        }
      ],
      "stateMutability": "view",
      "type": "function"
    },
    {
      "inputs": [],
      "name": "closingTime",
      "outputs": [
        {
          "internalType": "uint256",
          "name": "",
          "type": "uint256"
        }
      ],
      "stateMutability": "view",
      "type": "function"
    },
    {
      "inputs": [
        {
          "internalType": "address",
          "name": "",
          "type": "address"
        }
      ],
      "name": "contributions",
      "outputs": [
        {
          "internalType": "uint256",
          "name": "",
          "type": "uint256"
        }
      ],
      "stateMutability": "view",
      "type": "function"
    },
    {
      "inputs": [
        {
          "internalType": "uint256",
          "name": "newClosingTime",
          "type": "uint256"
        }
      ],
      "name": "extendTime",
      "outputs": [],
      "stateMutability": "nonpayable",
      "type": "function"
    },
    {
      "inputs": [],
      "name": "hasClosed",
      "outputs": [
        {
          "internalType": "bool",
          "name": "",
          "type": "bool"
        }
      ],
      "stateMutability": "view",
      "type": "function"
    },
    {
      "inputs": [],
      "name": "individualCap",
      "outputs": [
        {
          "internalType": "uint256",
          "name": "",
          "type": "uint256"
        }
      ],
      "stateMutability": "view",
      "type": "function"
    },
    {
      "inputs": [],
      "name": "isOpen",
      "outputs": [
        {
          "internalType": "bool",
          "name": "",
          "type": "bool"
        }
      ],
      "stateMutability": "view",
      "type": "function"
    },
    {
      "inputs": [],
      "name": "openingTime",
      "outputs": [
        {
          "internalType": "uint256",
          "name": "",
          "type": "uint256"
        }
      ],
      "stateMutability": "view",
      "type": "function"
    },
    {
      "inputs": [],
      "name": "owner",
      "outputs": [
        {
          "internalType": "address",
          "name": "",
          "type": "address"
        }
      ],
      "stateMutability": "view",
      "type": "function"
    },
    {
      "inputs": [],
      "name": "rate",
      "outputs": [
        {
          "internalType": "uint256",
          "name": "",
          "type": "uint256"
        }
      ],
      "stateMutability": "view",
      "type": "function"
    },
    {
      "inputs": [],
      "name": "rateDecimals",
      "outputs": [
        {
          "internalType": "uint256",
          "name": "",
          "type": "uint256"
        }
      ],
      "stateMutability": "view",
      "type": "function"
    },
    {
      "inputs": [],
      "name": "renounceOwnership",
      "outputs": [],
      "stateMutability": "nonpayable",
      "type": "function"
    },
    {
      "inputs": [
        {
          "internalType": "uint256",
          "name": "newIndividualCap",
          "type": "uint256"
        }
      ],
      "name": "setIndividualCap",
      "outputs": [],
      "stateMutability": "nonpayable",
      "type": "function"
    },
    {
      "inputs": [],
      "name": "token",
      "outputs": [
        {
          "internalType": "contract IERC20",
          "name": "",
          "type": "address"
        }
      ],
      "stateMutability": "view",
      "type": "function"
    },
    {
      "inputs": [
        {
          "internalType": "address",
          "name": "newOwner",
          "type": "address"
        }
      ],
      "name": "transferOwnership",
      "outputs": [],
      "stateMutability": "nonpayable",
      "type": "function"
    },
    {
      "inputs": [
        {
          "internalType": "uint256",
          "name": "newCap",
          "type": "uint256"
        }
      ],
      "name": "updateCap",
      "outputs": [],
      "stateMutability": "nonpayable",
      "type": "function"
    },
    {
      "inputs": [],
      "name": "wallet",
      "outputs": [
        {
          "internalType": "address payable",
          "name": "",
          "type": "address"
        }
      ],
      "stateMutability": "view",
      "type": "function"
    },
    {
      "inputs": [],
      "name": "weiRaised",
      "outputs": [
        {
          "internalType": "uint256",
          "name": "",
          "type": "uint256"
        }
      ],
      "stateMutability": "view",
      "type": "function"
    },
    {
      "stateMutability": "payable",
      "type": "receive"
    }
  ],
  "transactionHash": "0x73f7a4bf5cc57b0c14c1ec8cbf428008dc08a4863f93fe0425585a59e1a87e17",
  "args": [
    100,
    1000000000,
    "0xA1D0678e46288803e017d27ccE478Cc34025a099",
    "0x1D7f64e2Fb2Be8c1eac6914f49Ca4E897F5d7539",
    1642283150,
    1643069744,
    "10000000000000000000",
    "2000000000000000000"
  ],
  "solcInputHash": "5064f2836af57cfd86ab8f63ead1cd53",
  "bytecode": "0x60806040523480156200001157600080fd5b506040516200150c3803806200150c83398181016040526101008110156200003857600080fd5b508051602082015160408301516060840151608085015160a086015160c087015160e09097015160016000559596949593949293919290918787878783620000c7576040805162461bcd60e51b815260206004820152601460248201527f43726f776473616c653a20726174652069732030000000000000000000000000604482015290519081900360640190fd5b6001600160a01b0382166200010e5760405162461bcd60e51b8152600401808060200182810382526025815260200180620014e76025913960400191505060405180910390fd5b6001600160a01b038116620001555760405162461bcd60e51b8152600401808060200182810382526024815260200180620014c36024913960400191505060405180910390fd5b600393909355600491909155600280546001600160a01b039283166001600160a01b0319918216179091556001805492909316911617905560006200019962000319565b600680546001600160a01b0319166001600160a01b038316908117909155604051919250906000907f8be0079c531659141344cd1fd0a4f28419497f9722a3daafe3b4186f6b6457e0908290a35042841015620002285760405162461bcd60e51b8152600401808060200182810382526033815260200180620014356033913960400191505060405180910390fd5b838311620002685760405162461bcd60e51b8152600401808060200182810382526037815260200180620014686037913960400191505060405180910390fd5b6007849055600883905581620002c5576040805162461bcd60e51b815260206004820152601960248201527f43617070656443726f776473616c653a20636170206973203000000000000000604482015290519081900360640190fd5b600982905580620003085760405162461bcd60e51b81526004018080602001828103825260248152602001806200149f6024913960400191505060405180910390fd5b600b55506200031d95505050505050565b3390565b611108806200032d6000396000f3fe6080604052600436106101635760003560e01c8063521eb273116100c0578063b7a8807c11610074578063ec8ac4d811610059578063ec8ac4d814610383578063f2fde38b146103a9578063fc0c546a146103dc5761017a565b8063b7a8807c14610344578063cd2b3026146103595761017a565b80638da5cb5b116100a55780638da5cb5b146102db578063a27aebbc146102f0578063a7d688961461031a5761017a565b8063521eb27314610295578063715018a6146102c65761017a565b80634042b66f1161011757806347535d7b116100fc57806347535d7b146102565780634b6753bc1461026b5780634f935945146102805761017a565b80634042b66f1461020e57806342e94c90146102235761017a565b80631a3480b5116101485780631a3480b5146101cf5780632c4e722e146101e4578063355274ea146101f95761017a565b80630276650b1461017f5780631515bc2b146101a65761017a565b3661017a576101786101736103f1565b6103f5565b005b600080fd5b34801561018b57600080fd5b50610194610505565b60408051918252519081900360200190f35b3480156101b257600080fd5b506101bb61050b565b604080519115158252519081900360200190f35b3480156101db57600080fd5b50610194610513565b3480156101f057600080fd5b50610194610519565b34801561020557600080fd5b5061019461051f565b34801561021a57600080fd5b50610194610525565b34801561022f57600080fd5b506101946004803603602081101561024657600080fd5b50356001600160a01b031661052b565b34801561026257600080fd5b506101bb61053d565b34801561027757600080fd5b50610194610558565b34801561028c57600080fd5b506101bb61055e565b3480156102a157600080fd5b506102aa610569565b604080516001600160a01b039092168252519081900360200190f35b3480156102d257600080fd5b50610178610578565b3480156102e757600080fd5b506102aa610639565b3480156102fc57600080fd5b506101786004803603602081101561031357600080fd5b5035610648565b34801561032657600080fd5b506101786004803603602081101561033d57600080fd5b503561078e565b34801561035057600080fd5b50610194610854565b34801561036557600080fd5b506101786004803603602081101561037c57600080fd5b503561085a565b6101786004803603602081101561039957600080fd5b50356001600160a01b03166103f5565b3480156103b557600080fd5b50610178600480360360208110156103cc57600080fd5b50356001600160a01b031661090a565b3480156103e857600080fd5b506102aa610a22565b3390565b6002600054141561044d576040805162461bcd60e51b815260206004820152601f60248201527f5265656e7472616e637947756172643a207265656e7472616e742063616c6c00604482015290519081900360640190fd5b60026000553461045d8282610a31565b600061046882610b5e565b6005549091506104789083610b87565b6005556104858382610be8565b826001600160a01b03166104976103f1565b6001600160a01b03167f6faf93231a456e552dbc9961f58d9713ee4f2e69d15f1975b050ef0911053a7b8484604051808381526020018281526020019250505060405180910390a36104e98383610bf2565b6104f1610c3f565b6104fb8383610b5a565b5050600160005550565b600b5481565b600854421190565b60045481565b60035481565b60095481565b60055481565b600a6020526000908152604090205481565b6000600754421015801561055357506008544211155b905090565b60085481565b600954600554101590565b6002546001600160a01b031681565b6105806103f1565b6006546001600160a01b039081169116146105e2576040805162461bcd60e51b815260206004820181905260248201527f4f776e61626c653a2063616c6c6572206973206e6f7420746865206f776e6572604482015290519081900360640190fd5b6006546040516000916001600160a01b0316907f8be0079c531659141344cd1fd0a4f28419497f9722a3daafe3b4186f6b6457e0908390a36006805473ffffffffffffffffffffffffffffffffffffffff19169055565b6006546001600160a01b031690565b6106506103f1565b6006546001600160a01b039081169116146106b2576040805162461bcd60e51b815260206004820181905260248201527f4f776e61626c653a2063616c6c6572206973206e6f7420746865206f776e6572604482015290519081900360640190fd5b6106ba61050b565b1561070c576040805162461bcd60e51b815260206004820152601e60248201527f54696d656443726f776473616c653a20616c726561647920636c6f7365640000604482015290519081900360640190fd5b600854811161074c5760405162461bcd60e51b815260040180806020018281038252603f815260200180611047603f913960400191505060405180910390fd5b600854604080519182526020820183905280517f46711e222f558a07afd26e5e71b48ecb0a8b2cdcd40faeb1323e05e2c76a2f329281900390910190a1600855565b6107966103f1565b6006546001600160a01b039081169116146107f8576040805162461bcd60e51b815260206004820181905260248201527f4f776e61626c653a2063616c6c6572206973206e6f7420746865206f776e6572604482015290519081900360640190fd5b60006009541161084f576040805162461bcd60e51b815260206004820152601960248201527f43617070656443726f776473616c653a20636170206973203000000000000000604482015290519081900360640190fd5b600955565b60075481565b6108626103f1565b6006546001600160a01b039081169116146108c4576040805162461bcd60e51b815260206004820181905260248201527f4f776e61626c653a2063616c6c6572206973206e6f7420746865206f776e6572604482015290519081900360640190fd5b6000600b54116109055760405162461bcd60e51b81526004018080602001828103825260248152602001806110236024913960400191505060405180910390fd5b600b55565b6109126103f1565b6006546001600160a01b03908116911614610974576040805162461bcd60e51b815260206004820181905260248201527f4f776e61626c653a2063616c6c6572206973206e6f7420746865206f776e6572604482015290519081900360640190fd5b6001600160a01b0381166109b95760405162461bcd60e51b8152600401808060200182810382526026815260200180610ffd6026913960400191505060405180910390fd5b6006546040516001600160a01b038084169216907f8be0079c531659141344cd1fd0a4f28419497f9722a3daafe3b4186f6b6457e090600090a36006805473ffffffffffffffffffffffffffffffffffffffff19166001600160a01b0392909216919091179055565b6001546001600160a01b031681565b610a3961053d565b610a8a576040805162461bcd60e51b815260206004820152601860248201527f54696d656443726f776473616c653a206e6f74206f70656e0000000000000000604482015290519081900360640190fd5b610a948282610c7b565b600954600554610aa49083610b87565b1115610af7576040805162461bcd60e51b815260206004820152601d60248201527f43617070656443726f776473616c653a20636170206578636565646564000000604482015290519081900360640190fd5b600b546001600160a01b0383166000908152600a6020526040902054610b1d9083610b87565b1115610b5a5760405162461bcd60e51b815260040180806020018281038252602b8152602001806110a7602b913960400191505060405180910390fd5b5050565b6000610b81600454610b7b60035485610d1290919063ffffffff16565b90610d6b565b92915050565b600082820183811015610be1576040805162461bcd60e51b815260206004820152601b60248201527f536166654d6174683a206164646974696f6e206f766572666c6f770000000000604482015290519081900360640190fd5b9392505050565b610b5a8282610dad565b610bfc8282610b5a565b6001600160a01b0382166000908152600a6020526040902054610c1f9082610b87565b6001600160a01b039092166000908152600a602052604090209190915550565b6002546040516001600160a01b03909116903480156108fc02916000818181858888f19350505050158015610c78573d6000803e3d6000fd5b50565b6001600160a01b038216610cc05760405162461bcd60e51b815260040180806020018281038252602a8152602001806110d2602a913960400191505060405180910390fd5b80610b5a576040805162461bcd60e51b815260206004820152601960248201527f43726f776473616c653a20776569416d6f756e74206973203000000000000000604482015290519081900360640190fd5b600082610d2157506000610b81565b82820282848281610d2e57fe5b0414610be15760405162461bcd60e51b81526004018080602001828103825260218152602001806110866021913960400191505060405180910390fd5b6000610be183836040518060400160405280601a81526020017f536166654d6174683a206469766973696f6e206279207a65726f000000000000815250610dc4565b600154610b5a906001600160a01b03168383610e7d565b60008183610e505760405162461bcd60e51b81526004018080602001828103825283818151815260200191508051906020019080838360005b83811015610e15578181015183820152602001610dfd565b50505050905090810190601f168015610e425780820380516001836020036101000a031916815260200191505b509250505060405180910390fd5b506000838581610e5c57fe5b049050838581610e6857fe5b06818502018514610e7557fe5b949350505050565b604080516001600160a01b038481166024830152604480830185905283518084039091018152606490920183526020820180517bffffffffffffffffffffffffffffffffffffffffffffffffffffffff1663a9059cbb60e01b178152925182516000946060949389169392918291908083835b60208310610f0f5780518252601f199092019160209182019101610ef0565b6001836020036101000a0380198251168184511680821785525050505050509050019150506000604051808303816000865af19150503d8060008114610f71576040519150601f19603f3d011682016040523d82523d6000602084013e610f76565b606091505b5091509150818015610fa4575080511580610fa45750808060200190516020811015610fa157600080fd5b50515b610ff5576040805162461bcd60e51b815260206004820152600f60248201527f5452414e534645525f4641494c45440000000000000000000000000000000000604482015290519081900360640190fd5b505050505056fe4f776e61626c653a206e6577206f776e657220697320746865207a65726f206164647265737343617070656443726f776473616c653a20696e646976696475616c20636170206973203054696d656443726f776473616c653a206e657720636c6f73696e672074696d65206973206265666f72652063757272656e7420636c6f73696e672074696d65536166654d6174683a206d756c7469706c69636174696f6e206f766572666c6f7743617070656443726f776473616c653a2062656e656669636961727927732063617020657863656564656443726f776473616c653a2062656e656669636961727920697320746865207a65726f2061646472657373a164736f6c6343000705000a54696d656443726f776473616c653a206f70656e696e672074696d65206973206265666f72652063757272656e742074696d6554696d656443726f776473616c653a206f70656e696e672074696d65206973206e6f74206265666f726520636c6f73696e672074696d6543617070656443726f776473616c653a20696e646976696475616c20636170206973203043726f776473616c653a20746f6b656e20697320746865207a65726f206164647265737343726f776473616c653a2077616c6c657420697320746865207a65726f2061646472657373",
  "devdoc": {
    "events": {
      "TimedCrowdsaleExtended(uint256,uint256)": {
        "params": {
          "newClosingTime": "new closing time",
          "prevClosingTime": "old closing time"
        }
      }
    },
    "kind": "dev",
    "methods": {
      "buyTokens(address)": {
        "details": "low level token purchase ***DO NOT OVERRIDE*** This function has a non-reentrancy guard, so it shouldn't be called by another `nonReentrant` function.",
        "params": {
          "beneficiary": "Recipient of the token purchase"
        }
      },
      "capReached()": {
        "details": "Checks whether the cap has been reached.",
        "returns": {
          "_0": "Whether the cap was reached"
        }
      },
      "extendTime(uint256)": {
        "details": "Extend crowdsale.",
        "params": {
          "newClosingTime": "Crowdsale closing time"
        }
      },
      "hasClosed()": {
        "details": "Checks whether the period in which the crowdsale is open has already elapsed.",
        "returns": {
          "_0": "Whether crowdsale period has elapsed"
        }
      },
      "isOpen()": {
        "returns": {
          "_0": "true if the crowdsale is open, false otherwise."
        }
      },
      "owner()": {
        "details": "Returns the address of the current owner."
      },
      "renounceOwnership()": {
        "details": "Leaves the contract without owner. It will not be possible to call `onlyOwner` functions anymore. Can only be called by the current owner. NOTE: Renouncing ownership will leave the contract without an owner, thereby removing any functionality that is only available to the owner."
      },
      "transferOwnership(address)": {
        "details": "Transfers ownership of the contract to a new account (`newOwner`). Can only be called by the current owner."
      }
    },
    "version": 1
  },
  "userdoc": {
    "events": {
      "TimedCrowdsaleExtended(uint256,uint256)": {
        "notice": "Event for crowdsale extending"
      },
      "TokensPurchased(address,address,uint256,uint256)": {
        "notice": "Event for token purchase logging"
      }
    },
    "kind": "user",
    "methods": {},
    "version": 1
  },
  "storageLayout": {
    "storage": [
      {
        "astId": 142,
        "contract": "contracts/presale/PlutusPresale.sol:PlutusPresale",
        "label": "_status",
        "offset": 0,
        "slot": "0",
        "type": "t_uint256"
      },
      {
        "astId": 9396,
        "contract": "contracts/presale/PlutusPresale.sol:PlutusPresale",
        "label": "token",
        "offset": 0,
        "slot": "1",
        "type": "t_contract(IERC20)6951"
      },
      {
        "astId": 9398,
        "contract": "contracts/presale/PlutusPresale.sol:PlutusPresale",
        "label": "wallet",
        "offset": 0,
        "slot": "2",
        "type": "t_address_payable"
      },
      {
        "astId": 9400,
        "contract": "contracts/presale/PlutusPresale.sol:PlutusPresale",
        "label": "rate",
        "offset": 0,
        "slot": "3",
        "type": "t_uint256"
      },
      {
        "astId": 9402,
        "contract": "contracts/presale/PlutusPresale.sol:PlutusPresale",
        "label": "rateDecimals",
        "offset": 0,
        "slot": "4",
        "type": "t_uint256"
      },
      {
        "astId": 9404,
        "contract": "contracts/presale/PlutusPresale.sol:PlutusPresale",
        "label": "weiRaised",
        "offset": 0,
        "slot": "5",
        "type": "t_uint256"
      },
      {
        "astId": 30,
        "contract": "contracts/presale/PlutusPresale.sol:PlutusPresale",
        "label": "_owner",
        "offset": 0,
        "slot": "6",
        "type": "t_address"
      },
      {
        "astId": 9661,
        "contract": "contracts/presale/PlutusPresale.sol:PlutusPresale",
        "label": "openingTime",
        "offset": 0,
        "slot": "7",
        "type": "t_uint256"
      },
      {
        "astId": 9663,
        "contract": "contracts/presale/PlutusPresale.sol:PlutusPresale",
        "label": "closingTime",
        "offset": 0,
        "slot": "8",
        "type": "t_uint256"
      },
      {
        "astId": 9665,
        "contract": "contracts/presale/PlutusPresale.sol:PlutusPresale",
        "label": "cap",
        "offset": 0,
        "slot": "9",
        "type": "t_uint256"
      },
      {
        "astId": 9669,
        "contract": "contracts/presale/PlutusPresale.sol:PlutusPresale",
        "label": "contributions",
        "offset": 0,
        "slot": "10",
        "type": "t_mapping(t_address,t_uint256)"
      },
      {
        "astId": 9671,
        "contract": "contracts/presale/PlutusPresale.sol:PlutusPresale",
        "label": "individualCap",
        "offset": 0,
        "slot": "11",
        "type": "t_uint256"
      }
    ],
    "types": {
      "t_address": {
        "encoding": "inplace",
        "label": "address",
        "numberOfBytes": "20"
      },
      "t_address_payable": {
        "encoding": "inplace",
        "label": "address payable",
        "numberOfBytes": "20"
      },
      "t_contract(IERC20)6951": {
        "encoding": "inplace",
        "label": "contract IERC20",
        "numberOfBytes": "20"
      },
      "t_mapping(t_address,t_uint256)": {
        "encoding": "mapping",
        "key": "t_address",
        "label": "mapping(address => uint256)",
        "numberOfBytes": "32",
        "value": "t_uint256"
      },
      "t_uint256": {
        "encoding": "inplace",
        "label": "uint256",
        "numberOfBytes": "32"
      }
    }
  }
}